{
  "_format": "hh3-artifact-1",
  "contractName": "PatientsRegistry",
  "sourceName": "contracts/PatientRegistry.sol",
  "abi": [
    {
      "anonymous": false,
      "inputs": [
        {
          "indexed": true,
          "internalType": "address",
          "name": "researcher",
          "type": "address"
        },
        {
          "indexed": false,
          "internalType": "uint256",
          "name": "recordCount",
          "type": "uint256"
        },
        {
          "indexed": false,
          "internalType": "uint256",
          "name": "timestamp",
          "type": "uint256"
        }
      ],
      "name": "DatasetAccessed",
      "type": "event"
    },
    {
      "anonymous": false,
      "inputs": [
        {
          "indexed": true,
          "internalType": "address",
          "name": "institution",
          "type": "address"
        },
        {
          "indexed": false,
          "internalType": "string",
          "name": "name",
          "type": "string"
        },
        {
          "indexed": false,
          "internalType": "uint256",
          "name": "timestamp",
          "type": "uint256"
        }
      ],
      "name": "InstitutionRegistered",
      "type": "event"
    },
    {
      "anonymous": false,
      "inputs": [
        {
          "indexed": true,
          "internalType": "address",
          "name": "patient",
          "type": "address"
        },
        {
          "indexed": true,
          "internalType": "address",
          "name": "institution",
          "type": "address"
        },
        {
          "indexed": false,
          "internalType": "string",
          "name": "action",
          "type": "string"
        },
        {
          "indexed": false,
          "internalType": "uint256",
          "name": "timestamp",
          "type": "uint256"
        }
      ],
      "name": "PatientDataAccessed",
      "type": "event"
    },
    {
      "anonymous": false,
      "inputs": [
        {
          "indexed": true,
          "internalType": "address",
          "name": "patient",
          "type": "address"
        },
        {
          "indexed": false,
          "internalType": "string",
          "name": "name",
          "type": "string"
        },
        {
          "indexed": false,
          "internalType": "uint256",
          "name": "timestamp",
          "type": "uint256"
        }
      ],
      "name": "PatientRegistered",
      "type": "event"
    },
    {
      "anonymous": false,
      "inputs": [
        {
          "indexed": true,
          "internalType": "address",
          "name": "patient",
          "type": "address"
        },
        {
          "indexed": false,
          "internalType": "string",
          "name": "recordType",
          "type": "string"
        },
        {
          "indexed": false,
          "internalType": "address",
          "name": "addedBy",
          "type": "address"
        },
        {
          "indexed": false,
          "internalType": "uint256",
          "name": "timestamp",
          "type": "uint256"
        }
      ],
      "name": "RecordAdded",
      "type": "event"
    },
    {
      "anonymous": false,
      "inputs": [
        {
          "indexed": true,
          "internalType": "address",
          "name": "researcher",
          "type": "address"
        },
        {
          "indexed": false,
          "internalType": "string",
          "name": "name",
          "type": "string"
        },
        {
          "indexed": false,
          "internalType": "string",
          "name": "researchField",
          "type": "string"
        },
        {
          "indexed": false,
          "internalType": "uint256",
          "name": "timestamp",
          "type": "uint256"
        }
      ],
      "name": "ResearcherRegistered",
      "type": "event"
    },
    {
      "inputs": [
        {
          "internalType": "string",
          "name": "_recordType",
          "type": "string"
        },
        {
          "internalType": "string",
          "name": "_description",
          "type": "string"
        },
        {
          "internalType": "string",
          "name": "_doctorName",
          "type": "string"
        },
        {
          "internalType": "string",
          "name": "_institution",
          "type": "string"
        }
      ],
      "name": "addMedicalRecord",
      "outputs": [],
      "stateMutability": "nonpayable",
      "type": "function"
    },
    {
      "inputs": [
        {
          "internalType": "address",
          "name": "_patient",
          "type": "address"
        },
        {
          "internalType": "string",
          "name": "_recordType",
          "type": "string"
        },
        {
          "internalType": "string",
          "name": "_description",
          "type": "string"
        },
        {
          "internalType": "string",
          "name": "_doctorName",
          "type": "string"
        }
      ],
      "name": "addRecordForPatient",
      "outputs": [],
      "stateMutability": "nonpayable",
      "type": "function"
    },
    {
      "inputs": [
        {
          "internalType": "uint256",
          "name": "index",
          "type": "uint256"
        }
      ],
      "name": "getAccessLog",
      "outputs": [
        {
          "internalType": "address",
          "name": "institution",
          "type": "address"
        },
        {
          "internalType": "string",
          "name": "institutionName",
          "type": "string"
        },
        {
          "internalType": "uint256",
          "name": "timestamp",
          "type": "uint256"
        },
        {
          "internalType": "string",
          "name": "action",
          "type": "string"
        }
      ],
      "stateMutability": "view",
      "type": "function"
    },
    {
      "inputs": [],
      "name": "getAccessLogCount",
      "outputs": [
        {
          "internalType": "uint256",
          "name": "",
          "type": "uint256"
        }
      ],
      "stateMutability": "view",
      "type": "function"
    },
    {
      "inputs": [
        {
          "internalType": "uint256",
          "name": "startIndex",
          "type": "uint256"
        },
        {
          "internalType": "uint256",
          "name": "endIndex",
          "type": "uint256"
        }
      ],
      "name": "getAnonymizedBatch",
      "outputs": [
        {
          "components": [
            {
              "internalType": "uint256",
              "name": "timestamp",
              "type": "uint256"
            },
            {
              "internalType": "string",
              "name": "recordType",
              "type": "string"
            },
            {
              "internalType": "string",
              "name": "description",
              "type": "string"
            },
            {
              "internalType": "string",
              "name": "institution",
              "type": "string"
            },
            {
              "internalType": "string",
              "name": "bloodType",
              "type": "string"
            },
            {
              "internalType": "string",
              "name": "gender",
              "type": "string"
            },
            {
              "internalType": "uint256",
              "name": "patientIndex",
              "type": "uint256"
            }
          ],
          "internalType": "struct PatientsRegistry.AnonymizedRecord[]",
          "name": "",
          "type": "tuple[]"
        }
      ],
      "stateMutability": "nonpayable",
      "type": "function"
    },
    {
      "inputs": [],
      "name": "getDatasetStats",
      "outputs": [
        {
          "internalType": "uint256",
          "name": "totalPatients",
          "type": "uint256"
        },
        {
          "internalType": "uint256",
          "name": "totalRecords",
          "type": "uint256"
        },
        {
          "internalType": "uint256",
          "name": "lastUpdated",
          "type": "uint256"
        }
      ],
      "stateMutability": "view",
      "type": "function"
    },
    {
      "inputs": [],
      "name": "getDemographicsSummary",
      "outputs": [
        {
          "internalType": "string[]",
          "name": "bloodTypes",
          "type": "string[]"
        },
        {
          "internalType": "uint256[]",
          "name": "bloodTypeCounts",
          "type": "uint256[]"
        },
        {
          "internalType": "uint256",
          "name": "maleCount",
          "type": "uint256"
        },
        {
          "internalType": "uint256",
          "name": "femaleCount",
          "type": "uint256"
        },
        {
          "internalType": "uint256",
          "name": "otherCount",
          "type": "uint256"
        }
      ],
      "stateMutability": "view",
      "type": "function"
    },
    {
      "inputs": [],
      "name": "getInstitutionName",
      "outputs": [
        {
          "internalType": "string",
          "name": "",
          "type": "string"
        }
      ],
      "stateMutability": "view",
      "type": "function"
    },
    {
      "inputs": [
        {
          "internalType": "uint256",
          "name": "index",
          "type": "uint256"
        }
      ],
      "name": "getMedicalRecord",
      "outputs": [
        {
          "internalType": "uint256",
          "name": "timestamp",
          "type": "uint256"
        },
        {
          "internalType": "string",
          "name": "recordType",
          "type": "string"
        },
        {
          "internalType": "string",
          "name": "description",
          "type": "string"
        },
        {
          "internalType": "string",
          "name": "doctorName",
          "type": "string"
        },
        {
          "internalType": "string",
          "name": "institution",
          "type": "string"
        },
        {
          "internalType": "address",
          "name": "addedBy",
          "type": "address"
        }
      ],
      "stateMutability": "view",
      "type": "function"
    },
    {
      "inputs": [],
      "name": "getMyProfile",
      "outputs": [
        {
          "internalType": "string",
          "name": "name",
          "type": "string"
        },
        {
          "internalType": "uint256",
          "name": "dateOfBirth",
          "type": "uint256"
        },
        {
          "internalType": "string",
          "name": "bloodType",
          "type": "string"
        },
        {
          "internalType": "string",
          "name": "gender",
          "type": "string"
        },
        {
          "internalType": "uint256",
          "name": "recordCount",
          "type": "uint256"
        }
      ],
      "stateMutability": "view",
      "type": "function"
    },
    {
      "inputs": [
        {
          "internalType": "address",
          "name": "_patient",
          "type": "address"
        }
      ],
      "name": "getPatientBasicInfo",
      "outputs": [
        {
          "internalType": "string",
          "name": "name",
          "type": "string"
        },
        {
          "internalType": "uint256",
          "name": "_dateOfBirth",
          "type": "uint256"
        },
        {
          "internalType": "string",
          "name": "bloodType",
          "type": "string"
        },
        {
          "internalType": "string",
          "name": "gender",
          "type": "string"
        },
        {
          "internalType": "uint256",
          "name": "recordCount",
          "type": "uint256"
        }
      ],
      "stateMutability": "nonpayable",
      "type": "function"
    },
    {
      "inputs": [
        {
          "internalType": "address",
          "name": "_patient",
          "type": "address"
        },
        {
          "internalType": "uint256",
          "name": "index",
          "type": "uint256"
        }
      ],
      "name": "getPatientRecord",
      "outputs": [
        {
          "internalType": "uint256",
          "name": "timestamp",
          "type": "uint256"
        },
        {
          "internalType": "string",
          "name": "recordType",
          "type": "string"
        },
        {
          "internalType": "string",
          "name": "description",
          "type": "string"
        },
        {
          "internalType": "string",
          "name": "doctorName",
          "type": "string"
        },
        {
          "internalType": "string",
          "name": "institution",
          "type": "string"
        },
        {
          "internalType": "address",
          "name": "addedBy",
          "type": "address"
        }
      ],
      "stateMutability": "view",
      "type": "function"
    },
    {
      "inputs": [],
      "name": "getRecordCount",
      "outputs": [
        {
          "internalType": "uint256",
          "name": "",
          "type": "uint256"
        }
      ],
      "stateMutability": "view",
      "type": "function"
    },
    {
      "inputs": [],
      "name": "getRecordTypeBreakdown",
      "outputs": [
        {
          "internalType": "string[]",
          "name": "recordTypes",
          "type": "string[]"
        },
        {
          "internalType": "uint256[]",
          "name": "counts",
          "type": "uint256[]"
        }
      ],
      "stateMutability": "view",
      "type": "function"
    },
    {
      "inputs": [],
      "name": "getResearcherProfile",
      "outputs": [
        {
          "internalType": "string",
          "name": "name",
          "type": "string"
        },
        {
          "internalType": "string",
          "name": "institution",
          "type": "string"
        },
        {
          "internalType": "string",
          "name": "researchField",
          "type": "string"
        },
        {
          "internalType": "string",
          "name": "licenseId",
          "type": "string"
        },
        {
          "internalType": "uint256",
          "name": "registeredAt",
          "type": "uint256"
        },
        {
          "internalType": "uint256",
          "name": "dataAccessCount",
          "type": "uint256"
        }
      ],
      "stateMutability": "view",
      "type": "function"
    },
    {
      "inputs": [],
      "name": "getTimelineData",
      "outputs": [
        {
          "internalType": "uint256[12]",
          "name": "monthTimestamps",
          "type": "uint256[12]"
        },
        {
          "internalType": "uint256[12]",
          "name": "monthlyCounts",
          "type": "uint256[12]"
        }
      ],
      "stateMutability": "view",
      "type": "function"
    },
    {
      "inputs": [],
      "name": "getTotalPatients",
      "outputs": [
        {
          "internalType": "uint256",
          "name": "",
          "type": "uint256"
        }
      ],
      "stateMutability": "view",
      "type": "function"
    },
    {
      "inputs": [],
      "name": "isInstitutionRegistered",
      "outputs": [
        {
          "internalType": "bool",
          "name": "",
          "type": "bool"
        }
      ],
      "stateMutability": "view",
      "type": "function"
    },
    {
      "inputs": [],
      "name": "isRegistered",
      "outputs": [
        {
          "internalType": "bool",
          "name": "",
          "type": "bool"
        }
      ],
      "stateMutability": "view",
      "type": "function"
    },
    {
      "inputs": [],
      "name": "isResearcherRegistered",
      "outputs": [
        {
          "internalType": "bool",
          "name": "",
          "type": "bool"
        }
      ],
      "stateMutability": "view",
      "type": "function"
    },
    {
      "inputs": [
        {
          "internalType": "string",
          "name": "_name",
          "type": "string"
        },
        {
          "internalType": "uint256",
          "name": "_dateOfBirth",
          "type": "uint256"
        },
        {
          "internalType": "string",
          "name": "_bloodType",
          "type": "string"
        },
        {
          "internalType": "string",
          "name": "_gender",
          "type": "string"
        }
      ],
      "name": "register",
      "outputs": [],
      "stateMutability": "nonpayable",
      "type": "function"
    },
    {
      "inputs": [
        {
          "internalType": "string",
          "name": "_name",
          "type": "string"
        },
        {
          "internalType": "string",
          "name": "_institutionType",
          "type": "string"
        },
        {
          "internalType": "string",
          "name": "_location",
          "type": "string"
        },
        {
          "internalType": "string",
          "name": "_registrationId",
          "type": "string"
        }
      ],
      "name": "registerInstitution",
      "outputs": [],
      "stateMutability": "nonpayable",
      "type": "function"
    },
    {
      "inputs": [
        {
          "internalType": "string",
          "name": "_name",
          "type": "string"
        },
        {
          "internalType": "string",
          "name": "_institution",
          "type": "string"
        },
        {
          "internalType": "string",
          "name": "_researchField",
          "type": "string"
        },
        {
          "internalType": "string",
          "name": "_licenseId",
          "type": "string"
        }
      ],
      "name": "registerResearcher",
      "outputs": [],
      "stateMutability": "nonpayable",
      "type": "function"
    }
  ],
  "bytecode": "0x6080604052348015600e575f5ffd5b50613d998061001c5f395ff3fe608060405234801561000f575f5ffd5b5060043610610148575f3560e01c8063531241c5116100bf578063c73aae5911610079578063c73aae59146102f4578063ca267f281461030b578063cdb971b214610313578063ec554e6714610329578063ef9cb14614610349578063f497e18914610363575f5ffd5b8063531241c51461026c5780635e5989741461027f578063685d5b8b146102925780636d93fa19146102b557806370856b23146102c85780639dabcf66146102dd575f5ffd5b80632e961366116101105780632e961366146101df57806331656e00146102025780633270621214610218578063354bc6681461022d5780633a0c8fb21461024657806349dd6f0314610259575f5ffd5b80630c3887221461014c57806321527e501461017a578063220047491461019357806322366844146101a957806325f6b520146101cc575b5f5ffd5b61015f61015a366004613295565b61036b565b604051610171969594939291906132da565b60405180910390f35b610182610692565b604051610171959493929190613348565b61019b6108a5565b6040516101719291906133c1565b335f9081526020819052604090205460ff165b6040519015158152602001610171565b6101826101da366004613400565b610a64565b6101e7610e95565b60408051938452602084019290925290820152606001610171565b61020a610ed8565b604051908152602001610171565b61022b61022636600461345d565b610f19565b005b61023561146a565b60405161017195949392919061359d565b61022b6102543660046135df565b611819565b61022b6102673660046135df565b611b92565b61022b61027a3660046136a9565b611d05565b61022b61028d3660046135df565b611ef2565b6102a56102a0366004613295565b6120b5565b6040516101719493929190613705565b61015f6102c336600461374b565b6122a6565b6102d0612629565b6040516101719190613773565b335f9081526002602052604090205460ff166101bc565b335f9081526001602052604090205460ff166101bc565b61020a6126cb565b61031b61270f565b604051610171929190613785565b61033c6103373660046137b2565b612a35565b60405161017191906137d2565b610351612fa1565b604051610171969594939291906138bf565b60045461020a565b335f90815260208190526040812054606090819081908190859060ff166103ad5760405162461bcd60e51b81526004016103a490613921565b60405180910390fd5b335f908152602081905260409020600581015488106104045760405162461bcd60e51b8152602060048201526013602482015272496e646578206f7574206f6620626f756e647360681b60448201526064016103a4565b5f81600501898154811061041a5761041a613949565b905f5260205f2090600602019050805f015481600101826002018360030184600401856005015f9054906101000a90046001600160a01b031684805461045f9061395d565b80601f016020809104026020016040519081016040528092919081815260200182805461048b9061395d565b80156104d65780601f106104ad576101008083540402835291602001916104d6565b820191905f5260205f20905b8154815290600101906020018083116104b957829003601f168201915b505050505094508380546104e99061395d565b80601f01602080910402602001604051908101604052809291908181526020018280546105159061395d565b80156105605780601f1061053757610100808354040283529160200191610560565b820191905f5260205f20905b81548152906001019060200180831161054357829003601f168201915b505050505093508280546105739061395d565b80601f016020809104026020016040519081016040528092919081815260200182805461059f9061395d565b80156105ea5780601f106105c1576101008083540402835291602001916105ea565b820191905f5260205f20905b8154815290600101906020018083116105cd57829003601f168201915b505050505092508180546105fd9061395d565b80601f01602080910402602001604051908101604052809291908181526020018280546106299061395d565b80156106745780601f1061064b57610100808354040283529160200191610674565b820191905f5260205f20905b81548152906001019060200180831161065757829003601f168201915b50505050509150975097509750975097509750505091939550919395565b335f908152602081905260408120546060919082908190839060ff166106ca5760405162461bcd60e51b81526004016103a490613921565b335f90815260208190526040902060018101546005820154600283018054909291600385019160048601919085906107019061395d565b80601f016020809104026020016040519081016040528092919081815260200182805461072d9061395d565b80156107785780601f1061074f57610100808354040283529160200191610778565b820191905f5260205f20905b81548152906001019060200180831161075b57829003601f168201915b5050505050945082805461078b9061395d565b80601f01602080910402602001604051908101604052809291908181526020018280546107b79061395d565b80156108025780601f106107d957610100808354040283529160200191610802565b820191905f5260205f20905b8154815290600101906020018083116107e557829003601f168201915b505050505092508180546108159061395d565b80601f01602080910402602001604051908101604052809291908181526020018280546108419061395d565b801561088c5780601f106108635761010080835404028352916020019161088c565b820191905f5260205f20905b81548152906001019060200180831161086f57829003601f168201915b5050505050915095509550955095509550509091929394565b6108ad613257565b6108b5613257565b335f9081526002602052604090205460ff166108e35760405162461bcd60e51b81526004016103a490613995565b4262278d005f5b600c81101561093257816108ff82600b6139e0565b61090991906139f3565b61091390846139e0565b8582600c811061092557610925613949565b60200201526001016108ea565b505f5b600454811015610a5d575f5f5f6004848154811061095557610955613949565b5f9182526020808320909101546001600160a01b03168352820192909252604001812091505b6005820154811015610a53575f82600501828154811061099d5761099d613949565b5f918252602082206006909102015491505b600c811015610a49575f866109c583600c6139e0565b6109cf91906139f3565b6109d990896139e0565b90505f876109e884600b6139e0565b6109f291906139f3565b6109fc908a6139e0565b9050818410158015610a0d57508084105b15610a3f578983600c8110610a2457610a24613949565b60200201805190610a3482613a0a565b815250505050610a49565b50506001016109af565b505060010161097b565b5050600101610935565b5050509091565b335f908152600160205260408120546060919082908190839060ff16610a9c5760405162461bcd60e51b81526004016103a490613a22565b6001600160a01b0386165f9081526020819052604090205460ff16610af75760405162461bcd60e51b815260206004820152601160248201527014185d1a595b9d081b9bdd08199bdd5b99607a1b60448201526064016103a4565b6001600160a01b0386165f90815260036020908152604080832081516080810183523380825285526001808552929094209091018054919392830191610b3c9061395d565b80601f0160208091040260200160405190810160405280929190818152602001828054610b689061395d565b8015610bb35780601f10610b8a57610100808354040283529160200191610bb3565b820191905f5260205f20905b815481529060010190602001808311610b9657829003601f168201915b5050509183525050426020808301919091526040805180820182526004808252631491505160e21b8285015291909301929092528354600180820186555f9586529482902084519190930290920180546001600160a01b0319166001600160a01b039093169290921782558201519192909190820190610c339082613ab9565b506040820151600282015560608201516003820190610c529082613ab9565b505060408051818152600481830152631491505160e21b606082015242602082015290513392506001600160a01b038916917f705d622414e2acfb247d9ef72962d1133389d75f6d6a164c5c8645359e50ef38919081900360800190a36001600160a01b0386165f9081526020819052604090206001810154600582015460028301805490929160038501916004860191908590610cef9061395d565b80601f0160208091040260200160405190810160405280929190818152602001828054610d1b9061395d565b8015610d665780601f10610d3d57610100808354040283529160200191610d66565b820191905f5260205f20905b815481529060010190602001808311610d4957829003601f168201915b50505050509450828054610d799061395d565b80601f0160208091040260200160405190810160405280929190818152602001828054610da59061395d565b8015610df05780601f10610dc757610100808354040283529160200191610df0565b820191905f5260205f20905b815481529060010190602001808311610dd357829003601f168201915b50505050509250818054610e039061395d565b80601f0160208091040260200160405190810160405280929190818152602001828054610e2f9061395d565b8015610e7a5780601f10610e5157610100808354040283529160200191610e7a565b820191905f5260205f20905b815481529060010190602001808311610e5d57829003601f168201915b50505050509150955095509550955095505091939590929450565b335f908152600260205260408120548190819060ff16610ec75760405162461bcd60e51b81526004016103a490613995565b505060045460055490915042909192565b335f9081526020819052604081205460ff16610f065760405162461bcd60e51b81526004016103a490613921565b50335f9081526003602052604090205490565b335f9081526001602052604090205460ff16610f475760405162461bcd60e51b81526004016103a490613a22565b6001600160a01b0387165f9081526020819052604090205460ff16610fa75760405162461bcd60e51b815260206004820152601660248201527514185d1a595b9d081b9bdd081c9959da5cdd195c995960521b60448201526064016103a4565b84610feb5760405162461bcd60e51b8152602060048201526014602482015273149958dbdc99081d1e5c19481c995c5d5a5c995960621b60448201526064016103a4565b8261102f5760405162461bcd60e51b815260206004820152601460248201527311195cd8dc9a5c1d1a5bdb881c995c5d5a5c995960621b60448201526064016103a4565b5f5f886001600160a01b03166001600160a01b031681526020019081526020015f206005016040518060c0016040528042815260200188888080601f0160208091040260200160405190810160405280939291908181526020018383808284375f92019190915250505090825250604080516020601f8901819004810282018101909252878152918101919088908890819084018382808284375f92019190915250505090825250604080516020601f8701819004810282018101909252858152918101919086908690819084018382808284375f9201829052509385525050338252506001602081815260409092200180549190920191906111319061395d565b80601f016020809104026020016040519081016040528092919081815260200182805461115d9061395d565b80156111a85780601f1061117f576101008083540402835291602001916111a8565b820191905f5260205f20905b81548152906001019060200180831161118b57829003601f168201915b5050509183525050336020918201528254600181810185555f9485529382902083516006909202019081559082015191929091908201906111e99082613ab9565b50604082015160028201906111fe9082613ab9565b50606082015160038201906112139082613ab9565b50608082015160048201906112289082613ab9565b5060a09190910151600591820180546001600160a01b0319166001600160a01b039092169190911790558054905f61125f83613a0a565b90915550506001600160a01b0387165f908152600360209081526040808320815160808101835233808252855260018085529290942090910180549193928301916112a99061395d565b80601f01602080910402602001604051908101604052809291908181526020018280546112d59061395d565b80156113205780601f106112f757610100808354040283529160200191611320565b820191905f5260205f20905b81548152906001019060200180831161130357829003601f168201915b5050509183525050426020808301919091526040805180820182526005815264575249544560d81b818401529201919091528254600180820185555f94855293829020835160049092020180546001600160a01b0319166001600160a01b0390921691909117815590820151919290919082019061139e9082613ab9565b5060408201516002820155606082015160038201906113bd9082613ab9565b505050866001600160a01b03167f6c6b2c1c4ceb9a4eecc641ca6c44571028b04ab815d0268b3b184af15e5e59d6878733426040516113ff9493929190613b9b565b60405180910390a26040805181815260058183015264575249544560d81b6060820152426020820152905133916001600160a01b038a16917f705d622414e2acfb247d9ef72962d1133389d75f6d6a164c5c8645359e50ef389181900360800190a350505050505050565b335f9081526002602052604081205460609182918190819060ff166114a15760405162461bcd60e51b81526004016103a490613995565b60408051610140810182526002610100820181815261412b60f01b61012084015282528251808401845281815261412d60f01b602082810191909152808401919091528351808501855282815261422b60f01b81830152838501528351808501855282815261422d60f01b8183015260608401528351808501855260038082526241422b60e81b828401526080850191909152845180860186529081526241422d60e81b8183015260a084015283518085018552828152614f2b60f01b8183015260c08401528351808501909452908352614f2d60f01b9083015260e081019190915261158c613276565b5f8080805b60045481101561173c575f5f5f600484815481106115b1576115b1613949565b5f9182526020808320909101546001600160a01b031683528201929092526040908101822090519092506115e9906004840190613bca565b6040805191829003822082820190915260048252634d616c6560e01b60209092019190915290507fcef3ca8e4dcf6e3ff8225edab6d0c2d51bb96422670e8074c48457024f0ed8d48101611649578561164181613a0a565b9650506116ae565b60408051808201909152600681526546656d616c6560d01b6020909101527fd46a96cb7b362cb33617831115fa23b5ce6e903bf58d9d3d790de0d20ac0db0681016116a0578461169881613a0a565b9550506116ae565b836116aa81613a0a565b9450505b5f826003016040516116c09190613bca565b60405190819003902090505f5b600881101561172c578981600881106116e8576116e8613949565b60200201518051906020012082036117245788816008811061170c5761170c613949565b6020020180519061171c82613a0a565b90525061172c565b6001016116cd565b5050600190920191506115919050565b50604080516008808252610120820190925290816020015b60608152602001906001900390816117545750506040805160088082526101208201909252919b5060208201610100803683370190505098505f5b6008811015611808578581600881106117aa576117aa613949565b60200201518b82815181106117c1576117c1613949565b60200260200101819052508481600881106117de576117de613949565b60200201518a82815181106117f5576117f5613949565b602090810291909101015260010161178f565b509196509450925050509091929394565b335f9081526020819052604090205460ff166118475760405162461bcd60e51b81526004016103a490613921565b8661188b5760405162461bcd60e51b8152602060048201526014602482015273149958dbdc99081d1e5c19481c995c5d5a5c995960621b60448201526064016103a4565b846118d85760405162461bcd60e51b815260206004820152601760248201527f4465736372697074696f6e20697320726571756972656400000000000000000060448201526064016103a4565b826119255760405162461bcd60e51b815260206004820152601760248201527f446f63746f72206e616d6520697320726571756972656400000000000000000060448201526064016103a4565b806119725760405162461bcd60e51b815260206004820152601c60248201527f496e737469747574696f6e206e616d652069732072657175697265640000000060448201526064016103a4565b5f5f336001600160a01b03166001600160a01b031681526020019081526020015f206005016040518060c001604052804281526020018a8a8080601f0160208091040260200160405190810160405280939291908181526020018383808284375f92019190915250505090825250604080516020601f8b0181900481028201810190925289815291810191908a908a90819084018382808284375f92019190915250505090825250604080516020601f8901819004810282018101909252878152918101919088908890819084018382808284375f92019190915250505090825250604080516020601f8701819004810282018101909252858152918101919086908690819084018382808284375f9201829052509385525050506020918201819052835460018181018655948252908290208351600690920201908155908201519192909190820190611ac69082613ab9565b5060408201516002820190611adb9082613ab9565b5060608201516003820190611af09082613ab9565b5060808201516004820190611b059082613ab9565b5060a09190910151600591820180546001600160a01b0319166001600160a01b039092169190911790558054905f611b3c83613a0a565b9190505550336001600160a01b03167f6c6b2c1c4ceb9a4eecc641ca6c44571028b04ab815d0268b3b184af15e5e59d689895f42604051611b809493929190613b9b565b60405180910390a25050505050505050565b335f9081526001602052604090205460ff1615611bc15760405162461bcd60e51b81526004016103a490613a22565b86611c0e5760405162461bcd60e51b815260206004820152601960248201527f496e737469747574696f6e206e616d652072657175697265640000000000000060448201526064016103a4565b80611c5b5760405162461bcd60e51b815260206004820152601860248201527f526567697374726174696f6e204944207265717569726564000000000000000060448201526064016103a4565b335f908152600160208190526040909120805460ff191682178155908101611c84898b83613c3b565b5060028101611c94878983613c3b565b5060038101611ca4858783613c3b565b5060048101611cb4838583613c3b565b50336001600160a01b03167f7c0f5cc09780e7fbbb9700dc48f49cdadcdf5d8c8a674b8a8725af30071dc82f8a8a42604051611cf293929190613cf4565b60405180910390a2505050505050505050565b335f9081526020819052604090205460ff1615611d595760405162461bcd60e51b8152602060048201526012602482015271105b1c9958591e481c9959da5cdd195c995960721b60448201526064016103a4565b85611d995760405162461bcd60e51b815260206004820152601060248201526f13985b59481a5cc81c995c5d5a5c995960821b60448201526064016103a4565b5f8511611de85760405162461bcd60e51b815260206004820152601960248201527f44617465206f662062697274682069732072657175697265640000000000000060448201526064016103a4565b80611e2a5760405162461bcd60e51b815260206004820152601260248201527111d95b99195c881a5cc81c995c5d5a5c995960721b60448201526064016103a4565b335f908152602081905260409020805460ff1916600117815560028101611e52888a83613c3b565b506001810186905560038101611e69858783613c3b565b5060048101611e79838583613c3b565b50600480546001810182555f919091527f8a35acfbc15ff81a39ae7d344fd709f28e8600b4aa8c65c6b64bfe7fe36bd19b0180546001600160a01b031916339081179091556040517f096f893428730b9f440cde9930f6fbd450ce2d7ac1f2895f0d869da7376a36d190611b80908b908b904290613cf4565b335f9081526002602052604090205460ff1615611f515760405162461bcd60e51b815260206004820181905260248201527f416c72656164792072656769737465726564206173207265736561726368657260448201526064016103a4565b86611f8e5760405162461bcd60e51b815260206004820152600d60248201526c13985b59481c995c5d5a5c9959609a1b60448201526064016103a4565b84611fd25760405162461bcd60e51b8152602060048201526014602482015273125b9cdd1a5d1d5d1a5bdb881c995c5d5a5c995960621b60448201526064016103a4565b806120155760405162461bcd60e51b8152602060048201526013602482015272131a58d95b9cd9481251081c995c5d5a5c9959606a1b60448201526064016103a4565b335f908152600260205260409020805460ff191660019081178255810161203d898b83613c3b565b506002810161204d878983613c3b565b506003810161205d858783613c3b565b506004810161206d838583613c3b565b5042600582018190555f600683015560405133917f0582d795ff1b507de202895c6a894ef24534310c628ca15078a73763f597380d91611cf2918d918d918b918b9190613d17565b335f908152602081905260408120546060908290829060ff166120ea5760405162461bcd60e51b81526004016103a490613921565b335f9081526003602052604090208054861061213d5760405162461bcd60e51b8152602060048201526012602482015271125b99195e081bdd5d081bd988189bdd5b9960721b60448201526064016103a4565b5f81878154811061215057612150613949565b905f5260205f2090600402019050805f015f9054906101000a90046001600160a01b03168160010182600201548360030182805461218d9061395d565b80601f01602080910402602001604051908101604052809291908181526020018280546121b99061395d565b80156122045780601f106121db57610100808354040283529160200191612204565b820191905f5260205f20905b8154815290600101906020018083116121e757829003601f168201915b505050505092508080546122179061395d565b80601f01602080910402602001604051908101604052809291908181526020018280546122439061395d565b801561228e5780601f106122655761010080835404028352916020019161228e565b820191905f5260205f20905b81548152906001019060200180831161227157829003601f168201915b50505050509050955095509550955050509193509193565b335f90815260016020526040812054606090819081908190859060ff166122df5760405162461bcd60e51b81526004016103a490613a22565b6001600160a01b0388165f9081526020819052604090205460ff1661233a5760405162461bcd60e51b815260206004820152601160248201527014185d1a595b9d081b9bdd08199bdd5b99607a1b60448201526064016103a4565b6001600160a01b0388165f9081526020819052604090206005810154881061239a5760405162461bcd60e51b8152602060048201526013602482015272496e646578206f7574206f6620626f756e647360681b60448201526064016103a4565b5f8160050189815481106123b0576123b0613949565b905f5260205f2090600602019050805f015481600101826002018360030184600401856005015f9054906101000a90046001600160a01b03168480546123f59061395d565b80601f01602080910402602001604051908101604052809291908181526020018280546124219061395d565b801561246c5780601f106124435761010080835404028352916020019161246c565b820191905f5260205f20905b81548152906001019060200180831161244f57829003601f168201915b5050505050945083805461247f9061395d565b80601f01602080910402602001604051908101604052809291908181526020018280546124ab9061395d565b80156124f65780601f106124cd576101008083540402835291602001916124f6565b820191905f5260205f20905b8154815290600101906020018083116124d957829003601f168201915b505050505093508280546125099061395d565b80601f01602080910402602001604051908101604052809291908181526020018280546125359061395d565b80156125805780601f1061255757610100808354040283529160200191612580565b820191905f5260205f20905b81548152906001019060200180831161256357829003601f168201915b505050505092508180546125939061395d565b80601f01602080910402602001604051908101604052809291908181526020018280546125bf9061395d565b801561260a5780601f106125e15761010080835404028352916020019161260a565b820191905f5260205f20905b8154815290600101906020018083116125ed57829003601f168201915b5050505050915097509750975097509750975050509295509295509295565b335f9081526001602081905260409091200180546060919061264a9061395d565b80601f01602080910402602001604051908101604052809291908181526020018280546126769061395d565b80156126c15780601f10612698576101008083540402835291602001916126c1565b820191905f5260205f20905b8154815290600101906020018083116126a457829003601f168201915b5050505050905090565b335f9081526020819052604081205460ff166126f95760405162461bcd60e51b81526004016103a490613921565b50335f9081526020819052604090206005015490565b335f90815260026020526040902054606090819060ff166127425760405162461bcd60e51b81526004016103a490613995565b60408051610140810182526009610100820190815268446961676e6f73697360b81b610120830152815281518083018352600a8152691318588814995cdd5b1d60b21b6020828101919091528083019190915282518084018452600c81526b283932b9b1b934b83a34b7b760a11b818301528284015282518084018452600b81526a2b30b1b1b4b730ba34b7b760a91b818301526060830152825180840184526007808252665375726765727960c81b8284015260808401919091528351808501855281815266496d6167696e6760c81b8184015260a08401528351808501855290815266416c6c6572677960c81b8183015260c08301528251808401909352600583526427ba3432b960d91b9083015260e0810191909152612863613276565b5f5b600454811015612969575f5f5f6004848154811061288557612885613949565b5f9182526020808320909101546001600160a01b03168352820192909252604001812091505b600582015481101561295f575f8260050182815481106128cd576128cd613949565b905f5260205f2090600602016001016040516128e99190613bca565b60405190819003902090505f5b60088110156129555786816008811061291157612911613949565b602002015180519060200120820361294d5785816008811061293557612935613949565b6020020180519061294582613a0a565b905250612955565b6001016128f6565b50506001016128ab565b5050600101612865565b50604080516008808252610120820190925290816020015b6060815260200190600190039081612981575050604080516008808252610120820190925291955060208201610100803683370190505092505f5b6008811015610a5d578281600881106129d7576129d7613949565b60200201518582815181106129ee576129ee613949565b6020026020010181905250818160088110612a0b57612a0b613949565b6020020151848281518110612a2257612a22613949565b60209081029190910101526001016129bc565b335f9081526002602052604090205460609060ff16612a665760405162461bcd60e51b81526004016103a490613995565b818310612aa55760405162461bcd60e51b815260206004820152600d60248201526c496e76616c69642072616e676560981b60448201526064016103a4565b60045480831115612ab4578092505b5f845b84811015612b0f575f5f60048381548110612ad457612ad4613949565b5f9182526020808320909101546001600160a01b03168352820192909252604001902060050154612b059083613d50565b9150600101612ab7565b505f816001600160401b03811115612b2957612b29613a59565b604051908082528060200260200182016040528015612b9857816020015b612b856040518060e001604052805f815260200160608152602001606081526020016060815260200160608152602001606081526020015f81525090565b815260200190600190039081612b475790505b5090505f865b86811015612f38575f5f5f60048481548110612bbc57612bbc613949565b5f9182526020808320909101546001600160a01b03168352820192909252604001812091505b6005820154811015612f2e575f826005018281548110612c0457612c04613949565b905f5260205f20906006020190506040518060e00160405280825f01548152602001826001018054612c359061395d565b80601f0160208091040260200160405190810160405280929190818152602001828054612c619061395d565b8015612cac5780601f10612c8357610100808354040283529160200191612cac565b820191905f5260205f20905b815481529060010190602001808311612c8f57829003601f168201915b50505050508152602001826002018054612cc59061395d565b80601f0160208091040260200160405190810160405280929190818152602001828054612cf19061395d565b8015612d3c5780601f10612d1357610100808354040283529160200191612d3c565b820191905f5260205f20905b815481529060010190602001808311612d1f57829003601f168201915b50505050508152602001826004018054612d559061395d565b80601f0160208091040260200160405190810160405280929190818152602001828054612d819061395d565b8015612dcc5780601f10612da357610100808354040283529160200191612dcc565b820191905f5260205f20905b815481529060010190602001808311612daf57829003601f168201915b50505050508152602001846003018054612de59061395d565b80601f0160208091040260200160405190810160405280929190818152602001828054612e119061395d565b8015612e5c5780601f10612e3357610100808354040283529160200191612e5c565b820191905f5260205f20905b815481529060010190602001808311612e3f57829003601f168201915b50505050508152602001846004018054612e759061395d565b80601f0160208091040260200160405190810160405280929190818152602001828054612ea19061395d565b8015612eec5780601f10612ec357610100808354040283529160200191612eec565b820191905f5260205f20905b815481529060010190602001808311612ecf57829003601f168201915b5050505050815260200185815250868681518110612f0c57612f0c613949565b60200260200101819052508480612f2290613a0a565b95505050600101612be2565b5050600101612b9e565b50335f908152600260205260408120600601805491612f5683613a0a565b90915550506040805184815242602082015233917f1c05777fe6fe14803cf6ad3e49c2ff0c3202bba4ccc32bd9d673b4474176583e910160405180910390a250925050505b92915050565b335f90815260026020526040812054606091829182918291819060ff16612fda5760405162461bcd60e51b81526004016103a490613995565b5f60025f336001600160a01b03166001600160a01b031681526020019081526020015f20905080600101816002018260030183600401846005015485600601548580546130269061395d565b80601f01602080910402602001604051908101604052809291908181526020018280546130529061395d565b801561309d5780601f106130745761010080835404028352916020019161309d565b820191905f5260205f20905b81548152906001019060200180831161308057829003601f168201915b505050505095508480546130b09061395d565b80601f01602080910402602001604051908101604052809291908181526020018280546130dc9061395d565b80156131275780601f106130fe57610100808354040283529160200191613127565b820191905f5260205f20905b81548152906001019060200180831161310a57829003601f168201915b5050505050945083805461313a9061395d565b80601f01602080910402602001604051908101604052809291908181526020018280546131669061395d565b80156131b15780601f10613188576101008083540402835291602001916131b1565b820191905f5260205f20905b81548152906001019060200180831161319457829003601f168201915b505050505093508280546131c49061395d565b80601f01602080910402602001604051908101604052809291908181526020018280546131f09061395d565b801561323b5780601f106132125761010080835404028352916020019161323b565b820191905f5260205f20905b81548152906001019060200180831161321e57829003601f168201915b5050505050925096509650965096509650965050909192939495565b604051806101800160405280600c906020820280368337509192915050565b6040518061010001604052806008906020820280368337509192915050565b5f602082840312156132a5575f5ffd5b5035919050565b5f81518084528060208401602086015e5f602082860101526020601f19601f83011685010191505092915050565b86815260c060208201525f6132f260c08301886132ac565b828103604084015261330481886132ac565b9050828103606084015261331881876132ac565b9050828103608084015261332c81866132ac565b91505060018060a01b03831660a0830152979650505050505050565b60a081525f61335a60a08301886132ac565b866020840152828103604084015261337281876132ac565b9050828103606084015261338681866132ac565b9150508260808301529695505050505050565b805f5b600c8110156133bb57815184526020938401939091019060010161339c565b50505050565b61030081016133d08285613399565b6133de610180830184613399565b9392505050565b80356001600160a01b03811681146133fb575f5ffd5b919050565b5f60208284031215613410575f5ffd5b6133de826133e5565b5f5f83601f840112613429575f5ffd5b5081356001600160401b0381111561343f575f5ffd5b602083019150836020828501011115613456575f5ffd5b9250929050565b5f5f5f5f5f5f5f6080888a031215613473575f5ffd5b61347c886133e5565b965060208801356001600160401b03811115613496575f5ffd5b6134a28a828b01613419565b90975095505060408801356001600160401b038111156134c0575f5ffd5b6134cc8a828b01613419565b90955093505060608801356001600160401b038111156134ea575f5ffd5b6134f68a828b01613419565b989b979a50959850939692959293505050565b5f82825180855260208501945060208160051b830101602085015f5b8381101561355757601f198584030188526135418383516132ac565b6020988901989093509190910190600101613525565b50909695505050505050565b5f8151808452602084019350602083015f5b82811015613593578151865260209586019590910190600101613575565b5093949350505050565b60a081525f6135af60a0830188613509565b82810360208401526135c18188613563565b60408401969096525050606081019290925260809091015292915050565b5f5f5f5f5f5f5f5f6080898b0312156135f6575f5ffd5b88356001600160401b0381111561360b575f5ffd5b6136178b828c01613419565b90995097505060208901356001600160401b03811115613635575f5ffd5b6136418b828c01613419565b90975095505060408901356001600160401b0381111561365f575f5ffd5b61366b8b828c01613419565b90955093505060608901356001600160401b03811115613689575f5ffd5b6136958b828c01613419565b999c989b5096995094979396929594505050565b5f5f5f5f5f5f5f6080888a0312156136bf575f5ffd5b87356001600160401b038111156136d4575f5ffd5b6136e08a828b01613419565b9098509650506020880135945060408801356001600160401b038111156134c0575f5ffd5b6001600160a01b03851681526080602082018190525f90613728908301866132ac565b846040840152828103606084015261374081856132ac565b979650505050505050565b5f5f6040838503121561375c575f5ffd5b613765836133e5565b946020939093013593505050565b602081525f6133de60208301846132ac565b604081525f6137976040830185613509565b82810360208401526137a98185613563565b95945050505050565b5f5f604083850312156137c3575f5ffd5b50508035926020909101359150565b5f602082016020835280845180835260408501915060408160051b8601019250602086015f5b828110156138b357603f19878603018452815180518652602081015160e0602088015261382860e08801826132ac565b90506040820151878203604089015261384182826132ac565b9150506060820151878203606089015261385b82826132ac565b9150506080820151878203608089015261387582826132ac565b91505060a082015187820360a089015261388f82826132ac565b60c093840151989093019790975250945060209384019391909101906001016137f8565b50929695505050505050565b60c081525f6138d160c08301896132ac565b82810360208401526138e381896132ac565b905082810360408401526138f781886132ac565b9050828103606084015261390b81876132ac565b6080840195909552505060a00152949350505050565b6020808252600e908201526d139bdd081c9959da5cdd195c995960921b604082015260600190565b634e487b7160e01b5f52603260045260245ffd5b600181811c9082168061397157607f821691505b60208210810361398f57634e487b7160e01b5f52602260045260245ffd5b50919050565b60208082526019908201527f52657365617263686572206e6f74207265676973746572656400000000000000604082015260600190565b634e487b7160e01b5f52601160045260245ffd5b81810381811115612f9b57612f9b6139cc565b8082028115828204841417612f9b57612f9b6139cc565b5f60018201613a1b57613a1b6139cc565b5060010190565b6020808252601a908201527f496e737469747574696f6e206e6f742072656769737465726564000000000000604082015260600190565b634e487b7160e01b5f52604160045260245ffd5b601f821115613ab457805f5260205f20601f840160051c81016020851015613a925750805b601f840160051c820191505b81811015613ab1575f8155600101613a9e565b50505b505050565b81516001600160401b03811115613ad257613ad2613a59565b613ae681613ae0845461395d565b84613a6d565b6020601f821160018114613b18575f8315613b015750848201515b5f19600385901b1c1916600184901b178455613ab1565b5f84815260208120601f198516915b82811015613b475787850151825560209485019460019092019101613b27565b5084821015613b6457868401515f19600387901b60f8161c191681555b50505050600190811b01905550565b81835281816020850137505f828201602090810191909152601f909101601f19169091010190565b606081525f613bae606083018688613b73565b6001600160a01b03949094166020830152506040015292915050565b5f5f8354613bd78161395d565b600182168015613bee5760018114613c0357613c30565b60ff1983168652811515820286019350613c30565b865f5260205f205f5b83811015613c2857815488820152600190910190602001613c0c565b505081860193505b509195945050505050565b6001600160401b03831115613c5257613c52613a59565b613c6683613c60835461395d565b83613a6d565b5f601f841160018114613c97575f8515613c805750838201355b5f19600387901b1c1916600186901b178355613ab1565b5f83815260208120601f198716915b82811015613cc65786850135825560209485019460019092019101613ca6565b5086821015613ce2575f1960f88860031b161c19848701351681555b505060018560011b0183555050505050565b604081525f613d07604083018587613b73565b9050826020830152949350505050565b606081525f613d2a606083018789613b73565b8281036020840152613d3d818688613b73565b9150508260408301529695505050505050565b80820180821115612f9b57612f9b6139cc56fea2646970667358221220934dacec7c23c3d621f146af29d162460d43968f4aa3ab0dbb50d6fe4d077f7764736f6c634300081f0033",
  "linkReferences": {},
  "deployedLinkReferences": {},
  "immutableReferences": {},
  "inputSourceName": "project/contracts/PatientRegistry.sol",
  "buildInfoId": "solc-0_8_31-1f088d03a433de2265e8e1702a59b950391777f6"
}