{
  "_format": "hh3-artifact-1",
  "contractName": "PatientsRegistry",
  "sourceName": "contracts/PatientRegistry.sol",
  "abi": [
    {
      "anonymous": false,
      "inputs": [
        {
          "indexed": true,
          "internalType": "address",
          "name": "institution",
          "type": "address"
        },
        {
          "indexed": false,
          "internalType": "string",
          "name": "name",
          "type": "string"
        },
        {
          "indexed": false,
          "internalType": "uint256",
          "name": "timestamp",
          "type": "uint256"
        }
      ],
      "name": "InstitutionRegistered",
      "type": "event"
    },
    {
      "anonymous": false,
      "inputs": [
        {
          "indexed": true,
          "internalType": "address",
          "name": "patient",
          "type": "address"
        },
        {
          "indexed": true,
          "internalType": "address",
          "name": "institution",
          "type": "address"
        },
        {
          "indexed": false,
          "internalType": "string",
          "name": "action",
          "type": "string"
        },
        {
          "indexed": false,
          "internalType": "uint256",
          "name": "timestamp",
          "type": "uint256"
        }
      ],
      "name": "PatientDataAccessed",
      "type": "event"
    },
    {
      "anonymous": false,
      "inputs": [
        {
          "indexed": true,
          "internalType": "address",
          "name": "patient",
          "type": "address"
        },
        {
          "indexed": false,
          "internalType": "string",
          "name": "name",
          "type": "string"
        },
        {
          "indexed": false,
          "internalType": "uint256",
          "name": "timestamp",
          "type": "uint256"
        }
      ],
      "name": "PatientRegistered",
      "type": "event"
    },
    {
      "anonymous": false,
      "inputs": [
        {
          "indexed": true,
          "internalType": "address",
          "name": "patient",
          "type": "address"
        },
        {
          "indexed": false,
          "internalType": "string",
          "name": "recordType",
          "type": "string"
        },
        {
          "indexed": false,
          "internalType": "address",
          "name": "addedBy",
          "type": "address"
        },
        {
          "indexed": false,
          "internalType": "uint256",
          "name": "timestamp",
          "type": "uint256"
        }
      ],
      "name": "RecordAdded",
      "type": "event"
    },
    {
      "inputs": [
        {
          "internalType": "string",
          "name": "_recordType",
          "type": "string"
        },
        {
          "internalType": "string",
          "name": "_description",
          "type": "string"
        },
        {
          "internalType": "string",
          "name": "_doctorName",
          "type": "string"
        },
        {
          "internalType": "string",
          "name": "_institution",
          "type": "string"
        }
      ],
      "name": "addMedicalRecord",
      "outputs": [],
      "stateMutability": "nonpayable",
      "type": "function"
    },
    {
      "inputs": [
        {
          "internalType": "address",
          "name": "_patient",
          "type": "address"
        },
        {
          "internalType": "string",
          "name": "_recordType",
          "type": "string"
        },
        {
          "internalType": "string",
          "name": "_description",
          "type": "string"
        },
        {
          "internalType": "string",
          "name": "_doctorName",
          "type": "string"
        }
      ],
      "name": "addRecordForPatient",
      "outputs": [],
      "stateMutability": "nonpayable",
      "type": "function"
    },
    {
      "inputs": [
        {
          "internalType": "uint256",
          "name": "index",
          "type": "uint256"
        }
      ],
      "name": "getAccessLog",
      "outputs": [
        {
          "internalType": "address",
          "name": "institution",
          "type": "address"
        },
        {
          "internalType": "string",
          "name": "institutionName",
          "type": "string"
        },
        {
          "internalType": "uint256",
          "name": "timestamp",
          "type": "uint256"
        },
        {
          "internalType": "string",
          "name": "action",
          "type": "string"
        }
      ],
      "stateMutability": "view",
      "type": "function"
    },
    {
      "inputs": [],
      "name": "getAccessLogCount",
      "outputs": [
        {
          "internalType": "uint256",
          "name": "",
          "type": "uint256"
        }
      ],
      "stateMutability": "view",
      "type": "function"
    },
    {
      "inputs": [],
      "name": "getInstitutionName",
      "outputs": [
        {
          "internalType": "string",
          "name": "",
          "type": "string"
        }
      ],
      "stateMutability": "view",
      "type": "function"
    },
    {
      "inputs": [
        {
          "internalType": "uint256",
          "name": "index",
          "type": "uint256"
        }
      ],
      "name": "getMedicalRecord",
      "outputs": [
        {
          "internalType": "uint256",
          "name": "timestamp",
          "type": "uint256"
        },
        {
          "internalType": "string",
          "name": "recordType",
          "type": "string"
        },
        {
          "internalType": "string",
          "name": "description",
          "type": "string"
        },
        {
          "internalType": "string",
          "name": "doctorName",
          "type": "string"
        },
        {
          "internalType": "string",
          "name": "institution",
          "type": "string"
        },
        {
          "internalType": "address",
          "name": "addedBy",
          "type": "address"
        }
      ],
      "stateMutability": "view",
      "type": "function"
    },
    {
      "inputs": [],
      "name": "getMyProfile",
      "outputs": [
        {
          "internalType": "string",
          "name": "name",
          "type": "string"
        },
        {
          "internalType": "uint256",
          "name": "dateOfBirth",
          "type": "uint256"
        },
        {
          "internalType": "string",
          "name": "bloodType",
          "type": "string"
        },
        {
          "internalType": "string",
          "name": "gender",
          "type": "string"
        },
        {
          "internalType": "uint256",
          "name": "recordCount",
          "type": "uint256"
        }
      ],
      "stateMutability": "view",
      "type": "function"
    },
    {
      "inputs": [
        {
          "internalType": "address",
          "name": "_patient",
          "type": "address"
        }
      ],
      "name": "getPatientBasicInfo",
      "outputs": [
        {
          "internalType": "string",
          "name": "name",
          "type": "string"
        },
        {
          "internalType": "uint256",
          "name": "_dateOfBirth",
          "type": "uint256"
        },
        {
          "internalType": "string",
          "name": "bloodType",
          "type": "string"
        },
        {
          "internalType": "string",
          "name": "gender",
          "type": "string"
        },
        {
          "internalType": "uint256",
          "name": "recordCount",
          "type": "uint256"
        }
      ],
      "stateMutability": "nonpayable",
      "type": "function"
    },
    {
      "inputs": [
        {
          "internalType": "address",
          "name": "_patient",
          "type": "address"
        },
        {
          "internalType": "uint256",
          "name": "index",
          "type": "uint256"
        }
      ],
      "name": "getPatientRecord",
      "outputs": [
        {
          "internalType": "uint256",
          "name": "timestamp",
          "type": "uint256"
        },
        {
          "internalType": "string",
          "name": "recordType",
          "type": "string"
        },
        {
          "internalType": "string",
          "name": "description",
          "type": "string"
        },
        {
          "internalType": "string",
          "name": "doctorName",
          "type": "string"
        },
        {
          "internalType": "string",
          "name": "institution",
          "type": "string"
        },
        {
          "internalType": "address",
          "name": "addedBy",
          "type": "address"
        }
      ],
      "stateMutability": "view",
      "type": "function"
    },
    {
      "inputs": [],
      "name": "getRecordCount",
      "outputs": [
        {
          "internalType": "uint256",
          "name": "",
          "type": "uint256"
        }
      ],
      "stateMutability": "view",
      "type": "function"
    },
    {
      "inputs": [],
      "name": "isInstitutionRegistered",
      "outputs": [
        {
          "internalType": "bool",
          "name": "",
          "type": "bool"
        }
      ],
      "stateMutability": "view",
      "type": "function"
    },
    {
      "inputs": [],
      "name": "isRegistered",
      "outputs": [
        {
          "internalType": "bool",
          "name": "",
          "type": "bool"
        }
      ],
      "stateMutability": "view",
      "type": "function"
    },
    {
      "inputs": [
        {
          "internalType": "string",
          "name": "_name",
          "type": "string"
        },
        {
          "internalType": "uint256",
          "name": "_dateOfBirth",
          "type": "uint256"
        },
        {
          "internalType": "string",
          "name": "_bloodType",
          "type": "string"
        },
        {
          "internalType": "string",
          "name": "_gender",
          "type": "string"
        }
      ],
      "name": "register",
      "outputs": [],
      "stateMutability": "nonpayable",
      "type": "function"
    },
    {
      "inputs": [
        {
          "internalType": "string",
          "name": "_name",
          "type": "string"
        },
        {
          "internalType": "string",
          "name": "_institutionType",
          "type": "string"
        },
        {
          "internalType": "string",
          "name": "_location",
          "type": "string"
        },
        {
          "internalType": "string",
          "name": "_registrationId",
          "type": "string"
        }
      ],
      "name": "registerInstitution",
      "outputs": [],
      "stateMutability": "nonpayable",
      "type": "function"
    }
  ],
  "bytecode": "0x6080604052348015600e575f5ffd5b506125028061001c5f395ff3fe608060405234801561000f575f5ffd5b50600436106100e5575f3560e01c806349dd6f03116100885780636d93fa19116100635780636d93fa19146101ed57806370856b2314610200578063c73aae5914610215578063ca267f281461022c575f5ffd5b806349dd6f03146101a4578063531241c5146101b7578063685d5b8b146101ca575f5ffd5b806325f6b520116100c357806325f6b5201461015357806331656e0014610166578063327062121461017c5780633a0c8fb214610191575f5ffd5b80630c388722146100e957806321527e50146101175780632236684414610130575b5f5ffd5b6100fc6100f7366004611df3565b610234565b60405161010e96959493929190611e38565b60405180910390f35b61011f61055b565b60405161010e959493929190611ea6565b335f9081526020819052604090205460ff165b604051901515815260200161010e565b61011f610161366004611f12565b61076e565b61016e610b9f565b60405190815260200161010e565b61018f61018a366004611f77565b610be0565b005b61018f61019f366004612026565b611114565b61018f6101b2366004612026565b611474565b61018f6101c53660046120f4565b6115e7565b6101dd6101d8366004611df3565b611799565b60405161010e9493929190612152565b6100fc6101fb366004612198565b61198a565b610208611d0d565b60405161010e91906121c0565b335f9081526001602052604090205460ff16610143565b61016e611daf565b335f90815260208190526040812054606090819081908190859060ff166102765760405162461bcd60e51b815260040161026d906121d2565b60405180910390fd5b335f908152602081905260409020600581015488106102cd5760405162461bcd60e51b8152602060048201526013602482015272496e646578206f7574206f6620626f756e647360681b604482015260640161026d565b5f8160050189815481106102e3576102e36121fa565b905f5260205f2090600602019050805f015481600101826002018360030184600401856005015f9054906101000a90046001600160a01b03168480546103289061220e565b80601f01602080910402602001604051908101604052809291908181526020018280546103549061220e565b801561039f5780601f106103765761010080835404028352916020019161039f565b820191905f5260205f20905b81548152906001019060200180831161038257829003601f168201915b505050505094508380546103b29061220e565b80601f01602080910402602001604051908101604052809291908181526020018280546103de9061220e565b80156104295780601f1061040057610100808354040283529160200191610429565b820191905f5260205f20905b81548152906001019060200180831161040c57829003601f168201915b5050505050935082805461043c9061220e565b80601f01602080910402602001604051908101604052809291908181526020018280546104689061220e565b80156104b35780601f1061048a576101008083540402835291602001916104b3565b820191905f5260205f20905b81548152906001019060200180831161049657829003601f168201915b505050505092508180546104c69061220e565b80601f01602080910402602001604051908101604052809291908181526020018280546104f29061220e565b801561053d5780601f106105145761010080835404028352916020019161053d565b820191905f5260205f20905b81548152906001019060200180831161052057829003601f168201915b50505050509150975097509750975097509750505091939550919395565b335f908152602081905260408120546060919082908190839060ff166105935760405162461bcd60e51b815260040161026d906121d2565b335f90815260208190526040902060018101546005820154600283018054909291600385019160048601919085906105ca9061220e565b80601f01602080910402602001604051908101604052809291908181526020018280546105f69061220e565b80156106415780601f1061061857610100808354040283529160200191610641565b820191905f5260205f20905b81548152906001019060200180831161062457829003601f168201915b505050505094508280546106549061220e565b80601f01602080910402602001604051908101604052809291908181526020018280546106809061220e565b80156106cb5780601f106106a2576101008083540402835291602001916106cb565b820191905f5260205f20905b8154815290600101906020018083116106ae57829003601f168201915b505050505092508180546106de9061220e565b80601f016020809104026020016040519081016040528092919081815260200182805461070a9061220e565b80156107555780601f1061072c57610100808354040283529160200191610755565b820191905f5260205f20905b81548152906001019060200180831161073857829003601f168201915b5050505050915095509550955095509550509091929394565b335f908152600160205260408120546060919082908190839060ff166107a65760405162461bcd60e51b815260040161026d90612246565b6001600160a01b0386165f9081526020819052604090205460ff166108015760405162461bcd60e51b815260206004820152601160248201527014185d1a595b9d081b9bdd08199bdd5b99607a1b604482015260640161026d565b6001600160a01b0386165f908152600260209081526040808320815160808101835233808252855260018085529290942090910180549193928301916108469061220e565b80601f01602080910402602001604051908101604052809291908181526020018280546108729061220e565b80156108bd5780601f10610894576101008083540402835291602001916108bd565b820191905f5260205f20905b8154815290600101906020018083116108a057829003601f168201915b5050509183525050426020808301919091526040805180820182526004808252631491505160e21b8285015291909301929092528354600180820186555f9586529482902084519190930290920180546001600160a01b0319166001600160a01b03909316929092178255820151919290919082019061093d90826122dd565b50604082015160028201556060820151600382019061095c90826122dd565b505060408051818152600481830152631491505160e21b606082015242602082015290513392506001600160a01b038916917f705d622414e2acfb247d9ef72962d1133389d75f6d6a164c5c8645359e50ef38919081900360800190a36001600160a01b0386165f90815260208190526040902060018101546005820154600283018054909291600385019160048601919085906109f99061220e565b80601f0160208091040260200160405190810160405280929190818152602001828054610a259061220e565b8015610a705780601f10610a4757610100808354040283529160200191610a70565b820191905f5260205f20905b815481529060010190602001808311610a5357829003601f168201915b50505050509450828054610a839061220e565b80601f0160208091040260200160405190810160405280929190818152602001828054610aaf9061220e565b8015610afa5780601f10610ad157610100808354040283529160200191610afa565b820191905f5260205f20905b815481529060010190602001808311610add57829003601f168201915b50505050509250818054610b0d9061220e565b80601f0160208091040260200160405190810160405280929190818152602001828054610b399061220e565b8015610b845780601f10610b5b57610100808354040283529160200191610b84565b820191905f5260205f20905b815481529060010190602001808311610b6757829003601f168201915b50505050509150955095509550955095505091939590929450565b335f9081526020819052604081205460ff16610bcd5760405162461bcd60e51b815260040161026d906121d2565b50335f9081526002602052604090205490565b335f9081526001602052604090205460ff16610c0e5760405162461bcd60e51b815260040161026d90612246565b6001600160a01b0387165f9081526020819052604090205460ff16610c6e5760405162461bcd60e51b815260206004820152601660248201527514185d1a595b9d081b9bdd081c9959da5cdd195c995960521b604482015260640161026d565b84610cb25760405162461bcd60e51b8152602060048201526014602482015273149958dbdc99081d1e5c19481c995c5d5a5c995960621b604482015260640161026d565b82610cf65760405162461bcd60e51b815260206004820152601460248201527311195cd8dc9a5c1d1a5bdb881c995c5d5a5c995960621b604482015260640161026d565b5f5f886001600160a01b03166001600160a01b031681526020019081526020015f206005016040518060c0016040528042815260200188888080601f0160208091040260200160405190810160405280939291908181526020018383808284375f92019190915250505090825250604080516020601f8901819004810282018101909252878152918101919088908890819084018382808284375f92019190915250505090825250604080516020601f8701819004810282018101909252858152918101919086908690819084018382808284375f920182905250938552505033825250600160208181526040909220018054919092019190610df89061220e565b80601f0160208091040260200160405190810160405280929190818152602001828054610e249061220e565b8015610e6f5780601f10610e4657610100808354040283529160200191610e6f565b820191905f5260205f20905b815481529060010190602001808311610e5257829003601f168201915b5050509183525050336020918201528254600181810185555f948552938290208351600690920201908155908201519192909190820190610eb090826122dd565b5060408201516002820190610ec590826122dd565b5060608201516003820190610eda90826122dd565b5060808201516004820190610eef90826122dd565b5060a09190910151600590910180546001600160a01b0319166001600160a01b0392831617905587165f90815260026020908152604080832081516080810183523380825285526001808552929094209091018054919392830191610f539061220e565b80601f0160208091040260200160405190810160405280929190818152602001828054610f7f9061220e565b8015610fca5780601f10610fa157610100808354040283529160200191610fca565b820191905f5260205f20905b815481529060010190602001808311610fad57829003601f168201915b5050509183525050426020808301919091526040805180820182526005815264575249544560d81b818401529201919091528254600180820185555f94855293829020835160049092020180546001600160a01b0319166001600160a01b0390921691909117815590820151919290919082019061104890826122dd565b50604082015160028201556060820151600382019061106790826122dd565b505050866001600160a01b03167f6c6b2c1c4ceb9a4eecc641ca6c44571028b04ab815d0268b3b184af15e5e59d6878733426040516110a994939291906123c0565b60405180910390a26040805181815260058183015264575249544560d81b6060820152426020820152905133916001600160a01b038a16917f705d622414e2acfb247d9ef72962d1133389d75f6d6a164c5c8645359e50ef389181900360800190a350505050505050565b335f9081526020819052604090205460ff166111425760405162461bcd60e51b815260040161026d906121d2565b866111865760405162461bcd60e51b8152602060048201526014602482015273149958dbdc99081d1e5c19481c995c5d5a5c995960621b604482015260640161026d565b846111d35760405162461bcd60e51b815260206004820152601760248201527f4465736372697074696f6e206973207265717569726564000000000000000000604482015260640161026d565b826112205760405162461bcd60e51b815260206004820152601760248201527f446f63746f72206e616d65206973207265717569726564000000000000000000604482015260640161026d565b8061126d5760405162461bcd60e51b815260206004820152601c60248201527f496e737469747574696f6e206e616d6520697320726571756972656400000000604482015260640161026d565b5f5f336001600160a01b03166001600160a01b031681526020019081526020015f206005016040518060c001604052804281526020018a8a8080601f0160208091040260200160405190810160405280939291908181526020018383808284375f92019190915250505090825250604080516020601f8b0181900481028201810190925289815291810191908a908a90819084018382808284375f92019190915250505090825250604080516020601f8901819004810282018101909252878152918101919088908890819084018382808284375f92019190915250505090825250604080516020601f8701819004810282018101909252858152918101919086908690819084018382808284375f92018290525093855250505060209182018190528354600181810186559482529082902083516006909202019081559082015191929091908201906113c190826122dd565b50604082015160028201906113d690826122dd565b50606082015160038201906113eb90826122dd565b506080820151600482019061140090826122dd565b5060a09190910151600590910180546001600160a01b0319166001600160a01b0390921691909117905560405133907f6c6b2c1c4ceb9a4eecc641ca6c44571028b04ab815d0268b3b184af15e5e59d690611462908b908b905f9042906123c0565b60405180910390a25050505050505050565b335f9081526001602052604090205460ff16156114a35760405162461bcd60e51b815260040161026d90612246565b866114f05760405162461bcd60e51b815260206004820152601960248201527f496e737469747574696f6e206e616d6520726571756972656400000000000000604482015260640161026d565b8061153d5760405162461bcd60e51b815260206004820152601860248201527f526567697374726174696f6e2049442072657175697265640000000000000000604482015260640161026d565b335f908152600160208190526040909120805460ff191682178155908101611566898b836123ef565b50600281016115768789836123ef565b50600381016115868587836123ef565b50600481016115968385836123ef565b50336001600160a01b03167f7c0f5cc09780e7fbbb9700dc48f49cdadcdf5d8c8a674b8a8725af30071dc82f8a8a426040516115d4939291906124a9565b60405180910390a2505050505050505050565b335f9081526020819052604090205460ff161561163b5760405162461bcd60e51b8152602060048201526012602482015271105b1c9958591e481c9959da5cdd195c995960721b604482015260640161026d565b8561167b5760405162461bcd60e51b815260206004820152601060248201526f13985b59481a5cc81c995c5d5a5c995960821b604482015260640161026d565b5f85116116ca5760405162461bcd60e51b815260206004820152601960248201527f44617465206f6620626972746820697320726571756972656400000000000000604482015260640161026d565b8061170c5760405162461bcd60e51b815260206004820152601260248201527111d95b99195c881a5cc81c995c5d5a5c995960721b604482015260640161026d565b335f908152602081905260409020805460ff1916600117815560028101611734888a836123ef565b50600181018690556003810161174b8587836123ef565b506004810161175b8385836123ef565b50336001600160a01b03167f096f893428730b9f440cde9930f6fbd450ce2d7ac1f2895f0d869da7376a36d1898942604051611462939291906124a9565b335f908152602081905260408120546060908290829060ff166117ce5760405162461bcd60e51b815260040161026d906121d2565b335f908152600260205260409020805486106118215760405162461bcd60e51b8152602060048201526012602482015271125b99195e081bdd5d081bd988189bdd5b9960721b604482015260640161026d565b5f818781548110611834576118346121fa565b905f5260205f2090600402019050805f015f9054906101000a90046001600160a01b0316816001018260020154836003018280546118719061220e565b80601f016020809104026020016040519081016040528092919081815260200182805461189d9061220e565b80156118e85780601f106118bf576101008083540402835291602001916118e8565b820191905f5260205f20905b8154815290600101906020018083116118cb57829003601f168201915b505050505092508080546118fb9061220e565b80601f01602080910402602001604051908101604052809291908181526020018280546119279061220e565b80156119725780601f1061194957610100808354040283529160200191611972565b820191905f5260205f20905b81548152906001019060200180831161195557829003601f168201915b50505050509050955095509550955050509193509193565b335f90815260016020526040812054606090819081908190859060ff166119c35760405162461bcd60e51b815260040161026d90612246565b6001600160a01b0388165f9081526020819052604090205460ff16611a1e5760405162461bcd60e51b815260206004820152601160248201527014185d1a595b9d081b9bdd08199bdd5b99607a1b604482015260640161026d565b6001600160a01b0388165f90815260208190526040902060058101548810611a7e5760405162461bcd60e51b8152602060048201526013602482015272496e646578206f7574206f6620626f756e647360681b604482015260640161026d565b5f816005018981548110611a9457611a946121fa565b905f5260205f2090600602019050805f015481600101826002018360030184600401856005015f9054906101000a90046001600160a01b0316848054611ad99061220e565b80601f0160208091040260200160405190810160405280929190818152602001828054611b059061220e565b8015611b505780601f10611b2757610100808354040283529160200191611b50565b820191905f5260205f20905b815481529060010190602001808311611b3357829003601f168201915b50505050509450838054611b639061220e565b80601f0160208091040260200160405190810160405280929190818152602001828054611b8f9061220e565b8015611bda5780601f10611bb157610100808354040283529160200191611bda565b820191905f5260205f20905b815481529060010190602001808311611bbd57829003601f168201915b50505050509350828054611bed9061220e565b80601f0160208091040260200160405190810160405280929190818152602001828054611c199061220e565b8015611c645780601f10611c3b57610100808354040283529160200191611c64565b820191905f5260205f20905b815481529060010190602001808311611c4757829003601f168201915b50505050509250818054611c779061220e565b80601f0160208091040260200160405190810160405280929190818152602001828054611ca39061220e565b8015611cee5780601f10611cc557610100808354040283529160200191611cee565b820191905f5260205f20905b815481529060010190602001808311611cd157829003601f168201915b5050505050915097509750975097509750975050509295509295509295565b335f90815260016020819052604090912001805460609190611d2e9061220e565b80601f0160208091040260200160405190810160405280929190818152602001828054611d5a9061220e565b8015611da55780601f10611d7c57610100808354040283529160200191611da5565b820191905f5260205f20905b815481529060010190602001808311611d8857829003601f168201915b5050505050905090565b335f9081526020819052604081205460ff16611ddd5760405162461bcd60e51b815260040161026d906121d2565b50335f9081526020819052604090206005015490565b5f60208284031215611e03575f5ffd5b5035919050565b5f81518084528060208401602086015e5f602082860101526020601f19601f83011685010191505092915050565b86815260c060208201525f611e5060c0830188611e0a565b8281036040840152611e628188611e0a565b90508281036060840152611e768187611e0a565b90508281036080840152611e8a8186611e0a565b91505060018060a01b03831660a0830152979650505050505050565b60a081525f611eb860a0830188611e0a565b8660208401528281036040840152611ed08187611e0a565b90508281036060840152611ee48186611e0a565b9150508260808301529695505050505050565b80356001600160a01b0381168114611f0d575f5ffd5b919050565b5f60208284031215611f22575f5ffd5b611f2b82611ef7565b9392505050565b5f5f83601f840112611f42575f5ffd5b50813567ffffffffffffffff811115611f59575f5ffd5b602083019150836020828501011115611f70575f5ffd5b9250929050565b5f5f5f5f5f5f5f6080888a031215611f8d575f5ffd5b611f9688611ef7565b9650602088013567ffffffffffffffff811115611fb1575f5ffd5b611fbd8a828b01611f32565b909750955050604088013567ffffffffffffffff811115611fdc575f5ffd5b611fe88a828b01611f32565b909550935050606088013567ffffffffffffffff811115612007575f5ffd5b6120138a828b01611f32565b989b979a50959850939692959293505050565b5f5f5f5f5f5f5f5f6080898b03121561203d575f5ffd5b883567ffffffffffffffff811115612053575f5ffd5b61205f8b828c01611f32565b909950975050602089013567ffffffffffffffff81111561207e575f5ffd5b61208a8b828c01611f32565b909750955050604089013567ffffffffffffffff8111156120a9575f5ffd5b6120b58b828c01611f32565b909550935050606089013567ffffffffffffffff8111156120d4575f5ffd5b6120e08b828c01611f32565b999c989b5096995094979396929594505050565b5f5f5f5f5f5f5f6080888a03121561210a575f5ffd5b873567ffffffffffffffff811115612120575f5ffd5b61212c8a828b01611f32565b90985096505060208801359450604088013567ffffffffffffffff811115611fdc575f5ffd5b6001600160a01b03851681526080602082018190525f9061217590830186611e0a565b846040840152828103606084015261218d8185611e0a565b979650505050505050565b5f5f604083850312156121a9575f5ffd5b6121b283611ef7565b946020939093013593505050565b602081525f611f2b6020830184611e0a565b6020808252600e908201526d139bdd081c9959da5cdd195c995960921b604082015260600190565b634e487b7160e01b5f52603260045260245ffd5b600181811c9082168061222257607f821691505b60208210810361224057634e487b7160e01b5f52602260045260245ffd5b50919050565b6020808252601a908201527f496e737469747574696f6e206e6f742072656769737465726564000000000000604082015260600190565b634e487b7160e01b5f52604160045260245ffd5b601f8211156122d857805f5260205f20601f840160051c810160208510156122b65750805b601f840160051c820191505b818110156122d5575f81556001016122c2565b50505b505050565b815167ffffffffffffffff8111156122f7576122f761227d565b61230b81612305845461220e565b84612291565b6020601f82116001811461233d575f83156123265750848201515b5f19600385901b1c1916600184901b1784556122d5565b5f84815260208120601f198516915b8281101561236c578785015182556020948501946001909201910161234c565b508482101561238957868401515f19600387901b60f8161c191681555b50505050600190811b01905550565b81835281816020850137505f828201602090810191909152601f909101601f19169091010190565b606081525f6123d3606083018688612398565b6001600160a01b03949094166020830152506040015292915050565b67ffffffffffffffff8311156124075761240761227d565b61241b83612415835461220e565b83612291565b5f601f84116001811461244c575f85156124355750838201355b5f19600387901b1c1916600186901b1783556122d5565b5f83815260208120601f198716915b8281101561247b578685013582556020948501946001909201910161245b565b5086821015612497575f1960f88860031b161c19848701351681555b505060018560011b0183555050505050565b604081525f6124bc604083018587612398565b905082602083015294935050505056fea26469706673582212205f927360e1d31255856c9b7b06321a5f45ebff4c61e8115b5f96adc903f6bf8e64736f6c634300081f0033",
  "linkReferences": {},
  "deployedLinkReferences": {},
  "immutableReferences": {},
  "inputSourceName": "project/contracts/PatientRegistry.sol",
  "buildInfoId": "solc-0_8_31-693a64316057414a199edc58393cd0d91fe1942b"
}