{
  "_format": "hh3-artifact-1",
  "contractName": "PatientsRegistry",
  "sourceName": "contracts/PatientRegistry.sol",
  "abi": [
    {
      "anonymous": false,
      "inputs": [
        {
          "indexed": true,
          "internalType": "address",
          "name": "patient",
          "type": "address"
        },
        {
          "indexed": false,
          "internalType": "string",
          "name": "name",
          "type": "string"
        },
        {
          "indexed": false,
          "internalType": "uint256",
          "name": "timestamp",
          "type": "uint256"
        }
      ],
      "name": "PatientRegistered",
      "type": "event"
    },
    {
      "anonymous": false,
      "inputs": [
        {
          "indexed": true,
          "internalType": "address",
          "name": "patient",
          "type": "address"
        },
        {
          "indexed": false,
          "internalType": "string",
          "name": "recordType",
          "type": "string"
        },
        {
          "indexed": false,
          "internalType": "uint256",
          "name": "timestamp",
          "type": "uint256"
        }
      ],
      "name": "RecordAdded",
      "type": "event"
    },
    {
      "inputs": [
        {
          "internalType": "string",
          "name": "_recordType",
          "type": "string"
        },
        {
          "internalType": "string",
          "name": "_description",
          "type": "string"
        },
        {
          "internalType": "string",
          "name": "_doctorName",
          "type": "string"
        },
        {
          "internalType": "string",
          "name": "_institution",
          "type": "string"
        }
      ],
      "name": "addMedicalRecord",
      "outputs": [],
      "stateMutability": "nonpayable",
      "type": "function"
    },
    {
      "inputs": [
        {
          "internalType": "uint256",
          "name": "index",
          "type": "uint256"
        }
      ],
      "name": "getMedicalRecord",
      "outputs": [
        {
          "internalType": "uint256",
          "name": "timestamp",
          "type": "uint256"
        },
        {
          "internalType": "string",
          "name": "recordType",
          "type": "string"
        },
        {
          "internalType": "string",
          "name": "description",
          "type": "string"
        },
        {
          "internalType": "string",
          "name": "doctorName",
          "type": "string"
        },
        {
          "internalType": "string",
          "name": "institution",
          "type": "string"
        }
      ],
      "stateMutability": "view",
      "type": "function"
    },
    {
      "inputs": [],
      "name": "getMyProfile",
      "outputs": [
        {
          "internalType": "string",
          "name": "name",
          "type": "string"
        },
        {
          "internalType": "uint256",
          "name": "dateOfBirth",
          "type": "uint256"
        },
        {
          "internalType": "string",
          "name": "bloodType",
          "type": "string"
        },
        {
          "internalType": "string",
          "name": "gender",
          "type": "string"
        },
        {
          "internalType": "uint256",
          "name": "recordCount",
          "type": "uint256"
        }
      ],
      "stateMutability": "view",
      "type": "function"
    },
    {
      "inputs": [],
      "name": "getRecordCount",
      "outputs": [
        {
          "internalType": "uint256",
          "name": "",
          "type": "uint256"
        }
      ],
      "stateMutability": "view",
      "type": "function"
    },
    {
      "inputs": [],
      "name": "isRegistered",
      "outputs": [
        {
          "internalType": "bool",
          "name": "",
          "type": "bool"
        }
      ],
      "stateMutability": "view",
      "type": "function"
    },
    {
      "inputs": [
        {
          "internalType": "string",
          "name": "_name",
          "type": "string"
        },
        {
          "internalType": "uint256",
          "name": "_dateOfBirth",
          "type": "uint256"
        },
        {
          "internalType": "string",
          "name": "_bloodType",
          "type": "string"
        },
        {
          "internalType": "string",
          "name": "_gender",
          "type": "string"
        }
      ],
      "name": "register",
      "outputs": [],
      "stateMutability": "nonpayable",
      "type": "function"
    }
  ],
  "bytecode": "0x6080604052348015600e575f5ffd5b506110bd8061001c5f395ff3fe608060405234801561000f575f5ffd5b5060043610610060575f3560e01c80630c3887221461006457806321527e501461009157806322366844146100aa5780633a0c8fb2146100cc578063531241c5146100e1578063ca267f28146100f4575b5f5ffd5b610077610072366004610b58565b61010a565b604051610088959493929190610b9d565b60405180910390f35b610099610416565b604051610088959493929190610bfb565b335f9081526020819052604090205460ff166040519015158152602001610088565b6100df6100da366004610c91565b610629565b005b6100df6100ef366004610d5f565b610962565b6100fc610b14565b604051908152602001610088565b335f9081526020819052604081205460609081908190819060ff1661014a5760405162461bcd60e51b815260040161014190610e07565b60405180910390fd5b335f908152602081905260409020600581015487106101a15760405162461bcd60e51b8152602060048201526013602482015272496e646578206f7574206f6620626f756e647360681b6044820152606401610141565b5f8160050188815481106101b7576101b7610e2f565b905f5260205f2090600502019050805f0154816001018260020183600301846004018380546101e590610e43565b80601f016020809104026020016040519081016040528092919081815260200182805461021190610e43565b801561025c5780601f106102335761010080835404028352916020019161025c565b820191905f5260205f20905b81548152906001019060200180831161023f57829003601f168201915b5050505050935082805461026f90610e43565b80601f016020809104026020016040519081016040528092919081815260200182805461029b90610e43565b80156102e65780601f106102bd576101008083540402835291602001916102e6565b820191905f5260205f20905b8154815290600101906020018083116102c957829003601f168201915b505050505092508180546102f990610e43565b80601f016020809104026020016040519081016040528092919081815260200182805461032590610e43565b80156103705780601f1061034757610100808354040283529160200191610370565b820191905f5260205f20905b81548152906001019060200180831161035357829003601f168201915b5050505050915080805461038390610e43565b80601f01602080910402602001604051908101604052809291908181526020018280546103af90610e43565b80156103fa5780601f106103d1576101008083540402835291602001916103fa565b820191905f5260205f20905b8154815290600101906020018083116103dd57829003601f168201915b5050505050905096509650965096509650505091939590929450565b335f908152602081905260408120546060919082908190839060ff1661044e5760405162461bcd60e51b815260040161014190610e07565b335f908152602081905260409020600181015460058201546002830180549092916003850191600486019190859061048590610e43565b80601f01602080910402602001604051908101604052809291908181526020018280546104b190610e43565b80156104fc5780601f106104d3576101008083540402835291602001916104fc565b820191905f5260205f20905b8154815290600101906020018083116104df57829003601f168201915b5050505050945082805461050f90610e43565b80601f016020809104026020016040519081016040528092919081815260200182805461053b90610e43565b80156105865780601f1061055d57610100808354040283529160200191610586565b820191905f5260205f20905b81548152906001019060200180831161056957829003601f168201915b5050505050925081805461059990610e43565b80601f01602080910402602001604051908101604052809291908181526020018280546105c590610e43565b80156106105780601f106105e757610100808354040283529160200191610610565b820191905f5260205f20905b8154815290600101906020018083116105f357829003601f168201915b5050505050915095509550955095509550509091929394565b335f9081526020819052604090205460ff166106575760405162461bcd60e51b815260040161014190610e07565b8661069b5760405162461bcd60e51b8152602060048201526014602482015273149958dbdc99081d1e5c19481c995c5d5a5c995960621b6044820152606401610141565b846106e85760405162461bcd60e51b815260206004820152601760248201527f4465736372697074696f6e2069732072657175697265640000000000000000006044820152606401610141565b826107355760405162461bcd60e51b815260206004820152601760248201527f446f63746f72206e616d652069732072657175697265640000000000000000006044820152606401610141565b806107825760405162461bcd60e51b815260206004820152601c60248201527f496e737469747574696f6e206e616d65206973207265717569726564000000006044820152606401610141565b5f5f336001600160a01b03166001600160a01b031681526020019081526020015f206005016040518060a001604052804281526020018a8a8080601f0160208091040260200160405190810160405280939291908181526020018383808284375f92019190915250505090825250604080516020601f8b0181900481028201810190925289815291810191908a908a90819084018382808284375f92019190915250505090825250604080516020601f8901819004810282018101909252878152918101919088908890819084018382808284375f92019190915250505090825250604080516020601f8701819004810282018101909252858152918101919086908690819084018382808284375f9201829052509390945250508354600181810186559482526020918290208451600590920201908155908301519293909290830191506108d19082610edb565b50604082015160028201906108e69082610edb565b50606082015160038201906108fb9082610edb565b50608082015160048201906109109082610edb565b505050336001600160a01b03167f4b92a41aaac1d087148ec39a65a261cc6ac88ed7765dece5374bb3893fcfcf9e89894260405161095093929190610f96565b60405180910390a25050505050505050565b335f9081526020819052604090205460ff16156109b65760405162461bcd60e51b8152602060048201526012602482015271105b1c9958591e481c9959da5cdd195c995960721b6044820152606401610141565b856109f65760405162461bcd60e51b815260206004820152601060248201526f13985b59481a5cc81c995c5d5a5c995960821b6044820152606401610141565b5f8511610a455760405162461bcd60e51b815260206004820152601960248201527f44617465206f66206269727468206973207265717569726564000000000000006044820152606401610141565b80610a875760405162461bcd60e51b815260206004820152601260248201527111d95b99195c881a5cc81c995c5d5a5c995960721b6044820152606401610141565b335f908152602081905260409020805460ff1916600117815560028101610aaf888a83610fcd565b506001810186905560038101610ac6858783610fcd565b5060048101610ad6838583610fcd565b50336001600160a01b03167f096f893428730b9f440cde9930f6fbd450ce2d7ac1f2895f0d869da7376a36d189894260405161095093929190610f96565b335f9081526020819052604081205460ff16610b425760405162461bcd60e51b815260040161014190610e07565b50335f9081526020819052604090206005015490565b5f60208284031215610b68575f5ffd5b5035919050565b5f81518084528060208401602086015e5f602082860101526020601f19601f83011685010191505092915050565b85815260a060208201525f610bb560a0830187610b6f565b8281036040840152610bc78187610b6f565b90508281036060840152610bdb8186610b6f565b90508281036080840152610bef8185610b6f565b98975050505050505050565b60a081525f610c0d60a0830188610b6f565b8660208401528281036040840152610c258187610b6f565b90508281036060840152610c398186610b6f565b9150508260808301529695505050505050565b5f5f83601f840112610c5c575f5ffd5b50813567ffffffffffffffff811115610c73575f5ffd5b602083019150836020828501011115610c8a575f5ffd5b9250929050565b5f5f5f5f5f5f5f5f6080898b031215610ca8575f5ffd5b883567ffffffffffffffff811115610cbe575f5ffd5b610cca8b828c01610c4c565b909950975050602089013567ffffffffffffffff811115610ce9575f5ffd5b610cf58b828c01610c4c565b909750955050604089013567ffffffffffffffff811115610d14575f5ffd5b610d208b828c01610c4c565b909550935050606089013567ffffffffffffffff811115610d3f575f5ffd5b610d4b8b828c01610c4c565b999c989b5096995094979396929594505050565b5f5f5f5f5f5f5f6080888a031215610d75575f5ffd5b873567ffffffffffffffff811115610d8b575f5ffd5b610d978a828b01610c4c565b90985096505060208801359450604088013567ffffffffffffffff811115610dbd575f5ffd5b610dc98a828b01610c4c565b909550935050606088013567ffffffffffffffff811115610de8575f5ffd5b610df48a828b01610c4c565b989b979a50959850939692959293505050565b6020808252600e908201526d139bdd081c9959da5cdd195c995960921b604082015260600190565b634e487b7160e01b5f52603260045260245ffd5b600181811c90821680610e5757607f821691505b602082108103610e7557634e487b7160e01b5f52602260045260245ffd5b50919050565b634e487b7160e01b5f52604160045260245ffd5b601f821115610ed657805f5260205f20601f840160051c81016020851015610eb45750805b601f840160051c820191505b81811015610ed3575f8155600101610ec0565b50505b505050565b815167ffffffffffffffff811115610ef557610ef5610e7b565b610f0981610f038454610e43565b84610e8f565b6020601f821160018114610f3b575f8315610f245750848201515b5f19600385901b1c1916600184901b178455610ed3565b5f84815260208120601f198516915b82811015610f6a5787850151825560209485019460019092019101610f4a565b5084821015610f8757868401515f19600387901b60f8161c191681555b50505050600190811b01905550565b60408152826040820152828460608301375f606084830101525f6060601f19601f8601168301019050826020830152949350505050565b67ffffffffffffffff831115610fe557610fe5610e7b565b610ff983610ff38354610e43565b83610e8f565b5f601f84116001811461102a575f85156110135750838201355b5f19600387901b1c1916600186901b178355610ed3565b5f83815260208120601f198716915b828110156110595786850135825560209485019460019092019101611039565b5086821015611075575f1960f88860031b161c19848701351681555b505060018560011b018355505050505056fea26469706673582212200a5f84b232b965a067652e708091144bf3d5e9d80f92f7b419946450643ea8d664736f6c634300081f0033",
  "linkReferences": {},
  "deployedLinkReferences": {},
  "immutableReferences": {},
  "inputSourceName": "project/contracts/PatientRegistry.sol",
  "buildInfoId": "solc-0_8_31-3acf465475418878cec694c3c07f9d72ca2d1e3d"
}